:020000040800F2
:10000000706000209D0100081B2400082F110008CB
:1000100019240008CD020008F53200080000000095
:100020000000000000000000000000001F2F00087A
:10003000CF020008000000001D2F0008212F00083B
:10004000B7010008B7010008B7010008B7010008B0
:10005000B7010008B7010008B7010008B7010008A0
:10006000B7010008B7010008B7010008B701000890
:10007000B7010008B7010008B7010008B701000880
:10008000B7010008B7010008B7010008B701000870
:10009000B7010008B7010008B7010008B701000860
:1000A000B7010008B7010008B7010008B701000850
:1000B000B7010008B7010008B7010008B701000840
:1000C000B7010008B7010008B7010008B701000830
:1000D000B7010008E9320008B7010008B7010008BD
:1000E000B7010008B7010008B7010008B701000810
:1000F000B7010008B7010008B7010008B701000800
:10010000B7010008B7010008B7010008B7010008EF
:10011000B7010008B7010008B7010008B7010008DF
:10012000B7010008B7010008B7010008B7010008CF
:10013000B7010008B7010008B7010008B7010008BF
:10014000B7010008B7010008B7010008B7010008AF
:10015000B7010008B7010008B7010008B70100089F
:10016000B7010008B7010008B7010008B70100088F
:10017000B7010008B7010008B7010008000000003F
:10018000B7010008B7010008DFF80CD000F08CF8C8
:1001900000480047F13A0008706000200648804798
:1001A00006480047FEE7FEE7FEE7FEE7FEE7FEE75C
:1001B000FEE7FEE7FEE7FEE7B12F00088901000831
:1001C0002DE9F05F0546002092469B46884606468C
:1001D000814640241BE0284641464746224600F01F
:1001E0002FF853465A46C01A914110D3114618466B
:1001F000224600F016F82D1A67EB01084F462246FA
:100200000120002100F00DF817EB00094E41201EDF
:10021000A4F10104DFDC484631462A464346BDE8E6
:10022000F09F202A04DB203A00FA02F100207047F8
:100230009140C2F1200320FA03F319439040704724
:10024000202A04DB203A21FA02F00021704721FA2B
:1002500002F3D040C2F12002914008431946704792
:1002600040EA01039B0703D009E008C9121F08C038
:10027000042AFAD203E011F8013B00F8013B521EB8
:10028000F9D27047D2B201E000F8012B491EFBD22F
:1002900070470022F6E710B513460A460446194691
:1002A000FFF7F0FF204610BD064C074D06E0E06862
:1002B00040F0010394E8070098471034AC42F6D3AD
:1002C000FFF766FF803F0008A03F0008FEE7704789
:1002D00072B6FEE72DE9F0410446A76D00F03CF947
:1002E000054694F835000026022806D08020606577
:1002F00084F834600120BDE8F0812068016821F0B5
:10030000160101602068416921F080014161206C83
:1003100008B9A06C20B12068016821F008010160D3
:100320002068016821F0010101600BE000F014F980
:10033000401B052806D92020343420620320607039
:100340002670D8E720680068C007EFD134343F201A
:1003500094F828108840B860012060702670002052
:10036000C9E790F83510022903D0802141650120AA
:100370007047052180F835100068016821F00101FF
:1003800001600020704700002DE9F84F0022DFF8DF
:100390009C914FF0010803274FF00F0C09F1040A5C
:1003A000A9F1040B08FA02F50B682B40AB426ED1A1
:1003B0000C7904F00304012C01D0022C15D18668BD
:1003C000540007FA04FE26EA0E06D1F80CE00EFAF5
:1003D00004FE4EEA060EC0F808E04468AC430D790E
:1003E000C5F300159540254345600C79E443A40707
:1003F00008D0C568540007FA04F6B5438E68A640D5
:100400002E43C6600C7904F00304022C11D1D408E9
:1004100000EB8406356A5407E40E0CFA04FE25EA64
:100420000E05D1F810E00EFA04FE4EEA050EC6F8ED
:1004300020E00568540007FA04F6B5430E7906F08B
:100440000306A6402E4306604C6814F4403F67D074
:10045000374C256845F480452560246804F48044C1
:100460000094344C22F003052E19D6F8085894074E
:100470004FEA147E0CFA0EF4A5432F4CA04201D192
:10048000002424E02D4CA04202D101241FE047E0CB
:100490002B4CA04201D1022419E02A4CA04201D1E8
:1004A000032414E0284CA04201D104240FE0274C7F
:1004B000A04201D105240AE0254CA04201D1062426
:1004C00005E0244CA04201D1072400E0082404FAEE
:1004D0000EF42C43C6F80848D9F800409C434D68F8
:1004E000ED0200D51C43C9F80040DAF800409C43F7
:1004F0004D68AD0200D51C43CAF80040DBF800404F
:100500009C434D68AD0300D51C43CBF80040074D1C
:10051000083D2C689C434E68F60300D51C432C60B4
:10052000521C102AFFF43EAFBDE8F88F083C014092
:100530004438024000300140000002400004024004
:1005400000080240000C024000100240001402406B
:1005500000180240001C02400148806870470000FB
:1005600000000020024881680278114481607047D1
:100570000000002010B50B48016841F400710160D3
:10058000016841F480610160016841F4807101609B
:10059000032000F071F80F2000F006F800F026F8B4
:1005A000002010BD003C024070B504460D4D4FF4D4
:1005B0007A712878B1FBF0F00B490968B1FBF0F0D3
:1005C00000F0BAFB08B1012070BD102C07D2002248
:1005D0002146501E00F030F86C60002070BD0120F4
:1005E00070BD0000000000200C00002008B50A4883
:1005F000016841F480410160006800F4804000908F
:100600000548001F016841F080510160006800F05A
:100610008050009008BD000044380240002809DBEB
:1006200000F01F02012191404009800000F1E0200C
:10063000C0F8001170470000F0B40D460D4B1B6868
:10064000C3F30223C3F10704042C00D90424191DA9
:10065000072901D2002300E0DB1E012606FA04F17F
:10066000491E294099409E40761E16403143F0BCF9
:1006700002F052BE0CED00E000F00701054A1068E0
:100680004FF6FF03184040EA012003490843106079
:10069000704700000CED00E00000FA052DE9F0477E
:1006A00004460D46002C13D0DFF82891D9F800003D
:1006B000EFB200F00700A8420CD289F80070D9F818
:1006C000000000F00700A84204D00120BDE8F08738
:1006D0000120FBE72068404E810712D5400703D573
:1006E000306840F4E05030602078000703D530686F
:1006F00040F4604030603068A16820F0F0000843AA
:1007000030602078C00731D033496068083901284B
:1007100008D002280BD0032809D0096889070BD418
:100720000120D3E70968890306D40120CEE70968D0
:10073000890101D40120C9E7316821F00301014397
:100740003160FFF709FF804641F2883A07E0FFF782
:1007500003FFA0EB0800504501D90320B6E730683D
:10076000616800F00C00B0EB810FF0D1D9F8000007
:1007700000F00700A84209D989F80070D9F80000F4
:1007800000F00700A84201D001209FE72078400731
:1007900005D53068E16820F4E050084330602078E7
:1007A000000706D53068216920F4604040EAC100A6
:1007B000306000F03FF83168084AC1F30311515C22
:1007C000C8400749086007480068FFF7EDFE0020B1
:1007D0007CE70000003C024008380240683F000807
:1007E0000C00002004000020014800687047000051
:1007F0000C00002000B5FFF7F7FF04490968044A20
:10080000C1F38221515CC84000BD0000083802409D
:10081000783F000800B5FFF7E7FF04490968044A7C
:10082000C1F34231515CC84000BD000008380240AD
:10083000783F000810B51748006810F00C01164802
:1008400016D0164B042912D0082911D1114C241F9F
:10085000216801F03F02216849020AD52068C0F3EF
:100860008810A0FB03010023FFF7AAFC09E018464B
:1008700010BD21680023C1F38811A1FB0001FFF71F
:100880009FFC2168C1F30141491C4900B0FBF1F014
:1008900010BD0000083802400024F40040787D01BB
:1008A0002DE9F84F0446002C13D02078DFF8A08300
:1008B000C007A8F1040556D008F104000168C1F38F
:1008C000810101290CD00068C0F38100022803D007
:1008D0000DE00120BDE8F88FD8F80000400206D5F1
:1008E000286880033FD5606870BB0120F2E760682C
:1008F000B0F5803F10D0B0F5A02F12D0286820F4BA
:1009000080302860286820F4802028606068E0B18A
:10091000FFF722FE064614E0286840F48030286085
:10092000F4E7286840F480202860286840F480308C
:100930002860EBE7FFF710FE801B642801D9032035
:10094000C8E728688003F5D50DE0FFF705FE0646E9
:1009500006E0FFF701FE801B642801D90320B9E7F8
:1009600028688003F5D42078BA4F80074FF000093B
:1009700048D5B748001D016811F00C0F08D0006879
:10098000C0F38100022813D1D8F8000040020FD430
:100990002868800704D5E068012801D0012099E784
:1009A0002868216920F0F80040EAC100286029E0A9
:1009B000E068B8B101203860FFF7CEFD064606E0DA
:1009C000FFF7CAFD801B022801D9032082E72868AF
:1009D0008007F5D52868216920F0F80040EAC100B9
:1009E00028600FE0C7F80090FFF7B6FD064606E066
:1009F000FFF7B2FD801B022801D903206AE72868AF
:100A00008007F5D42078000729D5DFF844A2924862
:100A100061690AF1700A89B101210160FFF79CFD4B
:100A2000064606E0FFF798FD801B022801D9032047
:100A300050E7DAF800008007F4D510E0C0F8009025
:100A4000FFF78AFD064606E0FFF786FD801B0228B9
:100A500001D903203EE7DAF800008007F4D42078BB
:100A6000400778D54FF0000A79483C300068C00054
:100A70000BD477483C30016841F080510160006838
:100A800000F0805000904FF0010ADFF8D0B1DBF8A1
:100A90000000C00514D4DBF8000040F48070CBF8EF
:100AA0000000FFF759FD064606E0FFF755FD801BE5
:100AB000022801D903200DE7DBF80000C005F4D5BA
:100AC000634EA0686C3601280FD0052812D030681C
:100AD00020F001003060306820F004003060A06831
:100AE000F8B1FFF739FD834617E0306840F00100A8
:100AF0003060F4E7306840F004003060306840F067
:100B000001003060EBE7FFF727FDA0EB0B0141F29E
:100B10008830814201D90320DCE630688007F2D5B5
:100B200010E0FFF719FD834609E0FFF715FDA0EB84
:100B30000B0141F28830814201D90320CAE63068B6
:100B40008007F2D4BAF1010F05D141483C30016869
:100B500021F080510160A069C0B33D49091D0968B9
:100B60004FF0FF36C1F38101022946D0022805D09B
:100B7000C7F86090FFF7F0FC04463AE0C7F86090D1
:100B8000FFF7EAFC814607E0FFF7E6FCA0EB09006F
:100B9000022801D903209DE628688001F4D4D4E915
:100BA00007010843616AA26A890106EB520241EA21
:100BB0000241084394F82C1040EA0160C8F8000094
:100BC00001203866FFF7C8FC044607E03DE0FFF768
:100BD000C3FC001B022801D903207BE628688001A2
:100BE000F5D532E0FFF7B8FC001B022801D903203D
:100BF00070E628688001F5D427E0012823D0D8F8D2
:100C00000000E26900F4800191421AD1226A00F0EA
:100C10003F01914215D147F6C071626A0140B1EBC4
:100C2000821F0ED1A26A00F4403106EB5202B1EBF2
:100C3000024F06D194F82C1000F07060B0EB016FF9
:100C400003D0012046E6012044E6002042E60000F1
:100C50000438024000004742800E474200700040C6
:100C60002DE9F04704468A460027207901280ED056
:100C70000126267160794FF00008012809D0042070
:100C8000A060012784F804803846BDE8F087022080
:100C9000FBE74FF0020984F80590FFF75DFC05467D
:100CA00010E0FFF759FC401B02280BD92068406870
:100CB000C043C00706D06671C4F8089084F8048069
:100CC0000120E2E720684068C043C007E9D12068FE
:100CD0008068E060CAF800006671D3E770B504462A
:100CE000002C03D06079002510B105E0012070BD13
:100CF0002571204600F00CF8022060712068016820
:100D000041F00401016001206071A560002070BD08
:100D100008B500680649884208D10648016841F0D4
:100D200040010160006800F04000009008BD000034
:100D3000000806503438024010B5401EB0F1807FE4
:100D400001D3012010BD4FF0E02460610F21601736
:100D500002F0E2FA0020A06107202061002010BD0F
:100D600070477047F8B5044622681068D168536927
:100D700000F00F06002E08D1850606D58D0604D595
:100D80002046BDE8F84002F057B90025002E67D094
:100D900003F0010601F49077374361D0C20705D014
:100DA000CA0503D5226C42F001022264420705D530
:100DB000DA0703D0226C42F002022264820705D5D2
:100DC000DA0703D0226C42F004022264020707D53E
:100DD00001F02002324303D0226C42F00802226468
:100DE000226C002A32D0800604D5880602D520461F
:100DF00002F022F920684069C0F38010216C01F0F4
:100E00000801014327D0204602F0E2F8206840693B
:100E100040061CD52068143050E8001F21F0400126
:100E200040E80012002AF5D1A06B60B15649016577
:100E3000A06BFFF796FA002808D0A06B016D01B0F7
:100E4000BDE8F04008472046FFF78BFFF8BD20467D
:100E5000FFF787FFF8BD2046FFF783FF2564F8BD45
:100E6000236B012B7ED1C3067CD5CB067AD51068C7
:100E70005068009050694FF02003400643D5A16BA5
:100E80000868406880B20028E9D0A28D8242E6D985
:100E9000E085C869B0F5807F2DD020680C3050E81F
:100EA000001F21F4807140E80012002AF5D120686B
:100EB000143050E8001F21F0010140E80012002A20
:100EC000F5D12068143050E8001F21F0400140E8BF
:100ED0000012002AF5D184F83E30256320680C30DA
:100EE00050E8001F21F0100140E80012002AF5D15F
:100EF000A06BFFF7EFF9A08DE18D401A81B220467B
:100F0000FFF72EFFF8BDA08DE18D401A81B2E08D74
:100F10000028F7D00029F5D020680C3050E8002FC9
:100F200022F4907240E80026002EF5D1206814309B
:100F300050E8002F22F0010240E80026002EF5D1F3
:100F400084F83E30256320680C3050E8002F22F0F2
:100F5000100240E80023002BF5D12046FFF700FFE8
:100F6000F8BDFFE7020606D50A0604D52046BDE80F
:100F7000F84002F04FB94006F2D54806F0D52046B9
:100F8000BDE8F84002F04BB8C12F000870B5044628
:100F9000002C04D094F83D00002510B106E001209B
:100FA00070BD84F83C50204600F022F8242084F8DC
:100FB0003D002068C16821F40051C160204602F064
:100FC0009FF82068016921F490410161206841691E
:100FD00021F02A0141612068C16841F40051C160DB
:100FE0002564202084F83D0084F83E00002070BD78
:100FF00010B586B00446142101A8FFF74AF9184934
:101000002068884229D100211648026842F0100267
:101010000260006800F01000009012481438026866
:1010200042F001020260006800F0010000904FF4FD
:10103000C0600190022002900391032004900720D9
:10104000059001A90848FFF79FF9002211462520C5
:10105000FFF7F2FA2520FFF7E1FA06B010BD000015
:1010600000100140443802400000024070472DE962
:10107000F84304460E4615461F4694F83D002028C6
:1010800002D00220BDE8F883C6B1BDB194F83C009F
:10109000012815D0012084F83C004FF00009C4F865
:1010A0004090212084F83D00FFF756FA8046A58441
:1010B000E584A068B0F5805F04D005E00120E1E799
:1010C0000220DFE7206920B13546002684F83C90F5
:1010D00013E00025FAE743460022802120460097CE
:1010E00002F0C7F808B10320CCE79DB1216815F8DC
:1010F000010B4860E08C401EE084E08C0028EAD1BF
:101100004346002240212046009702F0B2F840B149
:101110000320B7E736F8020B2168C0F308004860E7
:10112000E8E7202084F83D000020ABE77047FEE7A9
:101130002DE9F14FADF5547DD49803C85F915E90D1
:10114000D498C16880685D915C90D49841690069C9
:101150005B915A90D498C169806959915890D498FC
:10116000416A006A57915690D498C16A806A559135
:101170005490D498416B006B53915290D498C16BAA
:10118000806B51915090D498416C006C4F914E906F
:10119000D498C16C806C4D914C90D498416D006D89
:1011A0004B914A90D498C16D806D49914890D498E4
:1011B000416E006E47914690D498C16E806E459105
:1011C0004490D498416F006F43914290D498C16F7E
:1011D000806F41914090D49850F8801F4068CDE9CD
:1011E0003E10D49850F8881F4068CDE93C10D49840
:1011F00050F8901F4068CDE93A10D49850F8981FE5
:101200004068CDE93810D49850F8A01F4068CDE967
:101210003610D49850F8A81F4068CDE93410D498FF
:1012200050F8B01F4068CDE93210D49850F8B81F7C
:101230004068CDE93010D49850F8C01F4068CDE91F
:101240002E1000206090549B5E98559A5F995840EC
:1012500051404A9B4B9A58405140409B419A5840BC
:101260005140DDE9363258405140D191D290529DE3
:101270005C9A539E5D9B6A407340489D499E6A40BC
:101280007340DDE93E566A407340DDE934566A40FA
:101290007340CF93D092DDF840C15A9E5B9F519D21
:1012A00086EA0C066F40DDF818C1479D86EA0C06F9
:1012B0006F40DDE93C5C6E4087EA0C07DDE9325C9B
:1012C0006E4087EA0C07CD97CE96DDF860814E9D83
:1012D000DDF83CC1DDF8649188EA050889EA0C096B
:1012E000DDF810C1459D88EA0C0889EA0509DDE9A9
:1012F0003AC588EA0C0889EA0509DDE930C588EABB
:101300000C0889EA0509CDF82C93CDF83083DDF877
:1013100058E1DDF830C1DDF85CB14D9D8EEA0C0E70
:101320008BEA050BDDF808C1439D8EEA0C0E8BEAB3
:10133000050BDDE938C58EEA0C0E8BEA050BDDE9FD
:101340002E5C8BEA0C0B8EEA050ECDF828B312EB5F
:10135000020A43EB030CCF9BCA9D8AEAD37A7446F8
:101360008AEA040A8CEA050CCDE92CACB21947EBE9
:10137000070ECD9FD298D19982EAD77282EA000BEC
:101380008EEA010ECDE92ABE18EB080E49EB090BD7
:10139000DDF82C93D09ECF9B8EEAD97E8EEA060E86
:1013A0008BEA030BCDE928EB2419DDF828B3CE9E98
:1013B00084EADB74CD9F6D4174407D40CDE92645C4
:1013C000001841EB010BD199DDF83083DDF82C9347
:1013D00080EAD17080EA08058BEA090BCDE9245B2D
:1013E0005E995F9881EA0A0180EA0C005E915F9045
:1013F0005F995E98DDE92A2E529D539B554083EA02
:101400000E0352955393529A539D1303120D42EAC1
:10141000053283EA1553C893C992DDE928EB469D4E
:10142000479E85EA0E0586EA0B0647964695469C3A
:10143000479DE7022646760D46EAC52687EA5557B8
:10144000C697C796DDE926A5DDE93A8988EA0A0844
:1014500089EA0509CDE93A89DDE93A544FEA455868
:101460004FEA445988EAD428C4AC49EAD529A4E80B
:101470000003DDE92ECADDE9245B8CEA050C8AEA6B
:101480000B0ACDE92ECADDE92E454FEA843A4FEA30
:10149000853C8AEA954A4CEA944C6546CDF80CA303
:1014A000C79EC69F26EA020227EA030342404B403A
:1014B000DFF8D8AEDDF880B10AEBCB0BDBE900AB8F
:1014C0008AEA020A8BEA030BCDE922ABDDF810832E
:1014D000DDF81493C99A28EA0606C89B29EA07078B
:1014E00056405F40CDE92067C39CC79E24EA0802AE
:1014F000C69F2CEA090372407B40CDE91E23DDF82C
:101500001083DDF8149320EA040221EA050382EA3D
:10151000080283EA0903CDE91C23C99AC89BDDF8B8
:101520000CA322EA000023EA010180EA0A0081EA12
:101530000C01CDE91A01DDE9264558995998614019
:1015400068405891599059995898090741EA1011E3
:10155000C2915999000780EA1110C190DDE9244B2E
:101560004C9E4D9B664083EA0B034C964D934D9ADF
:101570004C9C1305250543EA143385EA1232C093C7
:10158000BF92DDE92CAC4A9E4B9D86EA0A0685EAAD
:101590000C054A964B954B9C4A9DE700EE0047EAA6
:1015A000557786EA5476BE97BD96DDE93EC5DDE9FE
:1015B0002ABE8CEA0B0C85EA0E05CDE93EC53E9CA1
:1015C0003F9DA0464FEA44394FEAD84848EA45389B
:1015D00089EAD549CDF8EC92CDF8F082DDE928EB27
:1015E000DDE9324584EA0E0C85EA0B05CDE932C50A
:1015F000329C339DA4464FEA447A4FEADC0C4CEA15
:10160000457C8AEAD50A64465546BD9EBE9FC19870
:1016100026EA0202C29927EA030342404B40CDE981
:101620001823DDF8F082DDF8EC92BF9A28EA06066E
:10163000C09B29EA070756405F40CDE91667BD9E6B
:101640002CEA0802BE9F2AEA090372407B40CDE9DA
:101650001423C198C299A446DDF8F082DDF8EC921B
:1016600020EA0C0221EA050382EA080283EA090360
:10167000CDE91223BF9AC09B22EA000023EA0101B0
:1016800080EA0C0081EA0A01CDE91001DDE92A2E89
:101690005C995D98514080EA0E005C915D905C9889
:1016A0005D9A00185D9980EAD2704941BA90DDE9EF
:1016B00028EB509A519B82EA0E0283EA0B03519366
:1016C0005092519B509A9B0143EA9263B993519B6C
:1016D0009E0E86EA8212B99BB892DDF810C1DDE950
:1016E0002645459E8CEA040C6E40CDF810C1459607
:1016F000459C449E670647EAD617760686EAD416C6
:10170000B797B696DDE938C8DDE9244B8CEA040CBE
:1017100088EA0B08CDE938C8DDE938544FEA0528D6
:101720004FEA042988EA146849EA156ECDF8D48294
:10173000DDE92CACDDE9364584EA0A0485EA0C05CE
:10174000CDE93645DDE936454FEA854C4FEA844A16
:101750004CEA943C8AEA953A54466546B69EB79F51
:10176000BA9826EA020227EA030342404B40CDE939
:101770000E23DDF8D482B89A28EA0606B99B2EEA31
:10178000070756405F40F146CDE90C67B69E2AEA4E
:101790000802B79F2CEA090372407B40CDE90A2377
:1017A000BA98DDF8D48220EA040221EA050382EA2D
:1017B000080283EA0E03CDE90823B89AB99B22EA0E
:1017C000000023EA010180EA0A0081EA0C01CDE968
:1017D0000601DDE9244B56985799604081EA0B01D8
:1017E0005791569057995698C90641EA5011579A01
:1017F000C00680EA5210DDE92CAC549B559A83EA6E
:101800000A0382EA0C0254935592549A559B16018E
:10181000120F42EA031286EA1373DDE92ABE489FDB
:10182000499E87EA0B0786EA0E0648974996499C27
:10183000489EA70247EA9657B60286EA9456DDE923
:1018400028EBDDE93C4C84EA0E048CEA0B0CCDE974
:101850003C4CDDE93C454FEAC5394FEAC43849EA1A
:10186000544988EA5548DDE930CADDE926458CEA65
:10187000040C8AEA050ACDE930CA309CDDF8C4A020
:101880004FEA046C240A44EA0A648CEA1A2526EA20
:10189000020C27EA030A8CEA000C8AEA010ACDF856
:1018A000D0C2CDF8CCA228EA060A29EA070C8AEAB7
:1018B000020A8CEA030CCDF8C4C2CDF8C8A224EA0F
:1018C000080E8EEA060E25EA090AAFAE8AEA070A72
:1018D000A6E8004420EA040A21EA050C8AEA080A7C
:1018E0008CEA090CCDF8B4C2CDF8B8A222EA000CFB
:1018F00023EA010E8CEA040C8EEA050ECDF8ACE268
:10190000CDF8B0C2DDE928035A9A5B9942405940AC
:101910005A925B915A985B9A8107800840EA8270DC
:1019200081EA9201A991AA90DDE926454E9A4F9B42
:1019300062406B404F934E924E9A4F9CD305520A91
:1019400042EAC45283EA5423A793A892DDE92467AC
:10195000429C439D74407D4043954294429C4FEA93
:10196000C41B2546439C6E0E46EAC4168BEA546B94
:10197000CDF894B2A696DDE92CC8409C419D84EA3E
:101980000C0485EA080541954094409C4FEA44299F
:101990002546419C4FEAD55C4CEA442C89EAD4594F
:1019A000E046CDF89092DDE92AABDDE9345485EAD2
:1019B0000A0584EA0B04CDE93454DDE934454FEAE5
:1019C000850B4BEA947BA40084EA9574CDF88CB225
:1019D000A294A69EAA9826EA0202A59F4240A9992F
:1019E00027EA03034B40A093A192CDE90423A89AD0
:1019F0002CEA0606DDF890925640A79B29EA0707D5
:101A00005F409F96CDE90267A29CA39DC446A69E17
:101A1000DDF894B224EA0C0E25EA090A9DA88EEAA4
:101A2000060E8AEA0B0AA0E80044AA98A99920EABF
:101A30000404DDF8909221EA050584EA0C0485EAA5
:101A400009059C94CDE90045A89AA79BA29CDDF8C6
:101A50008CB222EA000A23EA010C8AEA040A8CEA20
:101A60000B0CCDF868C2CDF86CA2DDE92241DDE9AE
:101A700018325140DDE90E205C4054404140DDF811
:101A8000D0C2DDF8CCA2A19AA09B84EA0C0481EA22
:101A90000A0184EA0200594098919990DDE916C440
:101AA000DDE9202382EA0C026340DDE90C4CDDF81D
:101AB000C8A2624083EA0C039F9E82EA0A02DDF814
:101AC000C4C2724083EA0C037B4096939792DDE98F
:101AD0001E67DDE9144C664087EA0C07DDE90AC49D
:101AE000DDF8C0E2DDF8BCA286EA0C06674086EAB3
:101AF0000E0687EA0A07DDF878E2DDF874A286EAC6
:101B00000E0687EA0A0794979596DDE912C4DDE987
:101B10001C8988EA0C0889EA0409DDE908C488EA16
:101B20000C0889EA0409DDF8B8A2DDF8B4C29C9C6F
:101B300088EA0A0889EA0C0988EA040889EA05099A
:101B4000CDF84892CDF84C82DDE910ACDDE91A45BC
:101B500084EA0A0485EA0C05DDE906AC85EA0C0591
:101B600084EA0A04DDF8B0C2DDF8ACE284EA0C04D1
:101B7000DDF86CA2DDF868C285EA0E0584EA0A0485
:101B800085EA0C0E919412EB020C43EB030A969B30
:101B9000919C8CEAD37C75468FA88CEA040C8AEA67
:101BA000050AA0E80014CDE92CCAB31947EB0702D7
:101BB000949F999883EAD773434098998E934A40AB
:101BC000CDE92A328D9218EB080749EB0906DDF8BA
:101BD0004892979A87EAD9775740969B8C975E40B0
:101BE000CDE928768B962419959E949F45EB0508A0
:101BF00084EADE74744088EA07088A94CDE92648AE
:101C0000CDF82482041841EB01059899DDF84C8247
:101C1000DDF8489284EAD17484EA080485EA09056B
:101C20008894AE46CDE92445DDF840C2DDE92201C5
:101C3000DDF83CA280EA0C0081EA0A0187908691D7
:101C4000CDE92201DDE916458E9B8D9A5C40554019
:101C50002303220D42EA053283EA155384938592C9
:101C60008C9FDDE90A458B9E7C407540E702660D3E
:101C700046EAC52687EA555782978396DDF8B8A2CB
:101C80008A9CDDF8B4C2DDF824828AEA040A8CEA70
:101C9000080C4FEA4C594FEA4A5880A849EADA2919
:101CA00088EADC28A0E80003DDF86CA2889CDDF857
:101CB00068C28AEA040A8CEA0E0C4FEA8C354FEAB5
:101CC0008A3445EA9A4584EA9C447F957E94829FB3
:101CD000839E869927EA030A879826EA020C8AEAF5
:101CE000010B8CEA000CCDF8F4B1DDF880A1DFF82F
:101CF0009CB60AF1010A0BEBCA0A5EA8DAE900BE3B
:101D0000DDF8F4A18BEA0C0C8EEA0A0EA0E8005074
:101D1000DDF80082859A28EA0606DDF8049256402E
:101D2000849B29EA07075F405D975C966FEA080C81
:101D30007E9C7F9D839E829F0CEA040C25EA090805
:101D40008CEA060C88EA0708CDF868C1CDF86C81EA
:101D500087988699DDF80082DDF8049220EA04066F
:101D600021EA050786EA080687EA0907599758967F
:101D70000E46C1431140614023EA06006840569177
:101D800057908A9CDDE91C01DDF82482604081EADD
:101D90000801CDE91C01DDE91C01090741EA101128
:101DA0007C911D99000780EA11107B90DDE9245396
:101DB000DDE910246A405C40230543EA1233120532
:101DC00082EA14327A937992DDF840C2DDE90E4559
:101DD000DDF83CA284EA0C0485EA0A05CDE90E454B
:101DE000DDE90E45EF00E60047EA547786EA5576CE
:101DF00078977796DDF8C8A2DDE92A45DDF8C4C2F8
:101E00008AEA040A8CEA050C4FEA4A394FEADA48B2
:101E100048EA4C3889EADC49CDF8D491CDF8D8812C
:101E2000DDE92854DDF878E2DDF874A28EEA050ECB
:101E30008AEA040A4FEA4E754FEADE0E4EEA4A7EFF
:101E4000744685EADA0C779E7B9826EA0202789F30
:101E500042407C9927EA03034B4055935492DDF8A6
:101E6000D881799A28EA0606DDF8D49156407A9B03
:101E700029EA07075F4053975296779E2EEA080299
:101E80007240789F2CEA09037B406546519350923B
:101E90007B987C99DDF8D881DDF8D49120EA0402A2
:101EA00021EA050382EA080283EA09034F934E926E
:101EB000799A7A9B22EA000023EA010180EA0E0067
:101EC00081EA0C014D914C90DDE92A23DDE92001E6
:101ED00050405940CDE92001DDE920010018219A48
:101EE000494180EAD2707490DDE92853DDE9142479
:101EF0006A405C40A30143EA9263920182EA9462E1
:101F000073937292DDE92667DDE9084574407D40F0
:101F1000CDE90845DDE908456F06660647EAD417AE
:101F200086EAD51671977096DDE92454DDF8B0C2C3
:101F3000DDF8ACE28CEA050C8EEA040E4FEA0E29BD
:101F40004FEA0C2A49EA1C698AEA1E6AD046CDF893
:101F5000BC91DDE92CCBDDE9044584EA0C0485EA7B
:101F60000B05CDE90445DDE904454FEA854C4FEA10
:101F7000844E4CEA943C8EEA953E74466546709ECB
:101F8000749826EA0202719F424027EA03034B40FD
:101F90004B934A92729A2AEA0606DDF8BC915640A3
:101FA000739B29EA07075F4049974896709E2EEA7F
:101FB00008027240719F2CEA09037B4047934692C6
:101FC0007498AC46DDF8BC9120EA040221EA0C03C7
:101FD00082EA0A0283EA090345934492729A739B48
:101FE00022EA000023EA010180EA0E0081EA0C01E6
:101FF00043914290DDE92423DDE91A015040594024
:10200000CDE91A01DDE91A01C90641EA50116E91C4
:102010001B99C00680EA51106D90DDE92C45DDE981
:10202000183263406A40CDE91832189A199C13019E
:10203000120F42EA041283EA14736B936C92DDE987
:102040000C76DDE92A4567406E40CDE90C76DDE986
:102050000C45AF02A60247EA945786EA95566A975E
:102060006996DDF8C0E2DDE92845DDF8BCA28EEA1C
:10207000040E8AEA050A4FEACA3C4FEACE384CEA17
:102080005E4C88EA5A48E146CDF8A081DDE926ABEE
:10209000DDE9004584EA0A0485EA0B05CDE900453F
:1020A000009C2506A246019C4FEA1A2A4AEA046AC5
:1020B00085EA142E5446699E6D9826EA02026A9FAC
:1020C00042406E9927EA03034B4041934092DDF86A
:1020D000A0816C9A28EA06066B9B2CEA07075640FB
:1020E0005F40CDE93E67699E2AEA08026A9F2EEAB0
:1020F000090372407B407546CDE93C236D986E998B
:10210000DDF8A08120EA040221EA050382EA080240
:1021100083EA0C03CDE93A236C9A6B9B22EA000018
:1021200023EA010180EA0A0081EA0E01CDE93801C3
:10213000DDE92823DDE91E1051405840CDE91E108D
:102140001E981F9A8107800840EA827081EA9201F6
:1021500066916790DDE92645DDE9122362406B4018
:10216000CDE91223129A139CD305520A42EAC452B3
:1021700083EA542364936592DDE92476DDE906451C
:102180007C407540CDE90645069CE7012546079C45
:102190006E0E46EAC41687EA546762976396DDE9D5
:1021A0002C54DDF8D0C2DDF8CCA28CEA050C8AEA0A
:1021B000040A4FEA4C294FEADC5C4CEA4A2C89EAD3
:1021C000DA59E046CDF88491DDE92AABDDE9024534
:1021D00084EA0A0485EA0B05CDE90245DDE90245FA
:1021E0004FEA850A4FEA840E4AEA947A8EEA957E8F
:1021F00055467446639E629F679826EA0202669976
:1022000027EA030342404B40CDE93623DDF88491B1
:10221000659A2CEA0606649B29EA070756405F4048
:10222000CDE93467639E2EEA0802629F2AEA090319
:1022300072407B40CDE9322367986699DDF884913E
:1022400020EA040221EA050382EA0C0283EA090378
:10225000CDE93023659A649B22EA000023EA01015C
:1022600080EA0E0081EA0A01CDE92E016098801C07
:10227000609060981828FEF6E6AFD4985E995F9A51
:1022800006C0D4985D9A5C99C0E90212D4985B9A12
:102290005A99C0E90412D498599A5899C0E906127B
:1022A000D498579A5699C0E90812D498559A5499D7
:1022B000C0E90A12D4985399529AC0E90C21D498D3
:1022C000519A5099C0E90E12D4984F9A4E99C0E98C
:1022D0001012D4984D9A4C99C0E91212D4984B9A86
:1022E0004A99C0E91412D4984999489AC0E916212C
:1022F000D498479A4699C0E91812D498459A4499B7
:10230000C0E91A12D498439A4299C0E91C12D49891
:10231000419A4099C0E91E12DDE93E12D49840F876
:10232000801F4260DDE93C12D49840F8881F42606B
:10233000DDE93A12D49840F8901F4260DDE9382177
:10234000D49840F8982F4160DDE93612D49840F8CF
:10235000A01F4260DDE93412D49840F8A81F426003
:10236000DDE93221D49840F8B02F4160DDE9302119
:10237000D49840F8B82F4160DDE92E12D49840F887
:10238000C01F42600DF5557DBDE8F08FA83E0008E6
:1023900008B50948016841F080010160016801F059
:1023A00080010091016841F001010160006800F0C6
:1023B0000100009008BD00003038024010B5074908
:1023C000054808600846FEF789FC002803D0BDE8F0
:1023D0001040FDF77DBF10BD000806501C00002016
:1023E00010B50C480A4901604FF4E1314160002109
:1023F0008160C16001610C2242618161C161FEF7AF
:10240000C5FD002803D0BDE81040FDF761BF10BD39
:10241000001001402C000020FEE7FEE744F6BF61FB
:10242000414301F10071891640F6015211FB02F19E
:10243000401A00B270472DE9F04104460D46164699
:102440001F46B6F90210B5F9020001F0F5F9208037
:10245000394601F0F1F92080B6F90010B5F9000015
:1024600001F0EAF9218808442080B6F90210B5F994
:10247000000001F0E1F96080B6F90010B5F9020042
:1024800001F0DAF9618808446080BDE8F08170B538
:102490005B42DEB2002306E0C45CCD5C65403540A3
:1024A0006540C5545B1C9342F6D370BD2DE9F043E3
:1024B000ADF2C44D06460D46144604F5906722461B
:1024C00029460DF2844000F0E9F800200DF2844125
:1024D00022180B1892F8202983F82020401C20286D
:1024E000F6D340220DF284410DF2444001F0AFFBDF
:1024F0000DF2644398463A460DF2844101A800F07B
:10250000FDF84FF488694A4601A9284600F0DEFC30
:1025100007464A462946404601F07FFBFBB220228F
:1025200004F514610DF24440FFF7B1FF40230DF2B2
:1025300044422021304601F0BFFB0DF2C44D002083
:10254000BDE8F083F0B5A1B007460C461546202142
:1025500011A800F0CDFC202211A911A801F05DFB0B
:102560004FF49462294619A801F057FB402211A9A3
:1025700001A801F06CFB09AB1E462A4611A938469A
:1025800000F0BCF84FF488623946304601F045FB54
:10259000402301AA2021204601F08EFB21B000201B
:1025A000F0BD70B505460C462146284600F026F9D8
:1025B00000204FF494622318295C83F88014401C97
:1025C0009042F8D3294604F5126001F026FB202141
:1025D00004F5146000F08CFC002070BD2DE9F74F6D
:1025E000ADF5007D4FF000084FF4FC7B002680998C
:1025F00008EB480001EB402A829838B1F3B208F0AA
:10260000FF026846819900F0A9F906E008F0FF038F
:10261000F2B26846819900F0A1F96A46032101A847
:1026200001F046FB5F460AEB46293B4601AA4FF400
:102630008071484601F0C8FA04461EE00320B7FB4B
:10264000F0F100FB117500207A1B01A903E01318BB
:10265000CB5C0B54401CA842F9D348196A460121AF
:1026600001F026FB05F1A80709EB4400C4F58071D1
:102670003B4601AA01F0A8FA0444FF2CDED96846C3
:1026800001F013FB761C032EB6D308F10108B8F154
:10269000030FABD30DF5037DBDE8F08FF0B581B02E
:1026A000ADF5805D074615460A4681AE0DF6042459
:1026B0003146204601F05AFB29460DF204452846D2
:1026C00001F070FB204600F0DBFB224601AC2946FE
:1026D000204600F01BFB204600F086FA22463146D9
:1026E000204600F09AFA204600F08AFA2146384641
:1026F00000F0D3FA01B00DF5805DF0BD2DE9FF5F6C
:10270000ADF5415D0E469B46002443F220056D4425
:10271000A5F540692946484601F035FB0DF5087AD4
:102720003146504600F02CFA0DF542680122294648
:102730004046FFF753FF002508F5F0562246641C7B
:10274000E4B206EB4520594600F030FA6D1C032D2B
:10275000F4D300250DF5F1572246641CE4B207EBD3
:102760004520594600F031FA6D1C032DF4D359462B
:102770000DF1200B2246584600F027FA304600F0B3
:102780007FFB00240DF5C46504EB440008EB4021F9
:1027900005EB4420324600F0B9FA641C032CF3D355
:1027A0000DF5846432464946204600F0AFFA2846CB
:1027B00000F05BFB204600F017FA3A46294628460F
:1027C00000F091FA5A462146204600F029F9524677
:1027D0002146204600F024F9284600F05CFB204604
:1027E00000F00EFA0DF5405022462946006C01F02B
:1027F000CDF914B00DF5405DBDE8F09F2DE9F34F24
:10280000ADF2444DADF5005D8A4642F20449E9441B
:1028100009F1200B00242021484600F069FB20220A
:102820004946484601F013FAA9F590580022494656
:102830004046FFF7D3FE002501AE2246641CE4B2F9
:1028400006EB4520594600F0B1F96D1C032DF4D379
:1028500000250DF604472246641CE4B207EB452030
:10286000594600F0A3F96D1C032DF4D3304600F057
:1028700007FB384600F004FB00240DF2046504EB6E
:10288000440008EB402105EB44208346324600F02B
:102890003DFA584600F0F0F9641C032CEFD33A4699
:1028A0002946284600F01FFA284600F0F4FA31467F
:1028B000504601F087F90DF500504A462946D0F8F8
:1028C000440401F070F90DF24C4D0DF5005DBDE8CA
:1028D000F08F00002DE9F84F05464FF07F090226E2
:1028E000DFF874B000244846A9F101093BF9100053
:1028F000009004EB060A17E035F81480A71935F8A4
:102900001700404400B2FFF789FD25F8140035F8A0
:102910001700A0EB080001B225F81710009800F08E
:102920008BFF25F81700641CA245E5D83444FF2C22
:10293000D9D97600802ED5D9002440F2A15635F998
:102940001400314600F078FF25F81400641CFF2CB9
:10295000F5D9BDE8F88F0000A83D000870B58AB031
:10296000064614461D46202201A8FDF779FC8DF885
:1029700024408DF82550222201A9304601F081F92A
:102980000AB070BD70B50E468AB0054611461C46A9
:10299000202201A8FDF764FC8DF82440212301AA20
:1029A0003146284601F088F90AB070BD4FF2013275
:1029B00000FB02F16FF4506211FB02F108440014B5
:1029C000704700002DE9F05F054601278026DFF8FB
:1029D0004CA0002438467F1C3AF910B004EB0609DD
:1029E00011E004EB0608584635F9181000F024FFF2
:1029F00035F81410091A25F8181035F81410084481
:102A000025F81400641CA145EBD83444FF2CE1D90F
:102A10007608022EDDD2BDE8F09F0000A83D000838
:102A200030B5002331F8134032F813502C4420F80D
:102A300013405B1CFF2BF5D930BD00002DE9F0479A
:102A400006460F4690460024DFF844904FF0020AF5
:102A500004F140031D4639F9133008EBC40207EBBB
:102A6000C40106EBC400FFF7E6FC39F815000AEBD9
:102A70008405404203B208EB450207EB450106EB33
:102A80004500FFF7D8FC641C402CE1D3BDE8F0877B
:102A9000A83D000800F091BE00F08FBEFCB50023F9
:102AA00040F601556E466F10002202EBC30431F967
:102AB000144005EAE43C6444A4B207EB0414B4FBFC
:102AC000F5F404F00F04B454521C082AEDD39DF819
:102AD00000209DF8014042EA041202709DF8022095
:102AE0009DF8034042EA041242709DF804209DF8CC
:102AF000054042EA041282709DF806209DF80740C6
:102B000042EA0412C270001D5B1C202BCCD3FCBD1A
:102B100030B5002201240B7840F6015503F00F0375
:102B200013FB05F308331B0920F8223011F8013B91
:102B30001B0913FB05F3083304EB42051B0920F8BE
:102B40001530521C802AE6D330BD70B50022012416
:102B500002EB4203CD5C0B445E7845EA0625C5F3E3
:102B60000B0520F822505D789B782D0945EA031368
:102B700004EB420520F81530521C802AE8D370BDC2
:102B800070B5002340F281650022CC5CD44004F093
:102B90000104644202EBC3062C4020F81640521C8C
:102BA000082AF2D35B1C202BEED370BD10B5A0B069
:102BB000044613460A4680216846FFF7E3FE69464D
:102BC0002046FFF767FF20B010BD10B5A0B0044647
:102BD00013460A4680216846FFF7D4FE6946204620
:102BE000FFF75AFF20B010BDFFF774BE10B50446C2
:102BF0002046FFF7E7FE2046BDE81040AFF3008017
:102C000070B50546002435F91400FFF707FC25F8D8
:102C10001400641CFF2CF6D970BD30B5002331F8C8
:102C2000134032F81350641B20F813405B1CFF2B39
:102C3000F5D930BDF0B5002240F60156012731F834
:102C4000223043F3C0343440234407EB420431F8CC
:102C5000144044F3C03535402C4402EB4205435543
:102C60001B0A43EA041C2B1883F801C024099C703A
:102C7000521C802AE3D3F0BD70B50546002440F213
:102C8000495135F8140010FB01F0FFF78FFE25F8CD
:102C90001400641CFF2CF2D970BDF0B5002200278F
:102CA00040F601556E108754002303EBC20431F83F
:102CB000144044F3C03C0CEA050C6444A4B206EB97
:102CC0004404B4FBF5F404F0010410F802C09C4085
:102CD0004CEA040C00F802C05B1C082BE5D3521C24
:102CE000202AE0D3F0BD2DE9F04105460E461746F7
:102CF000002407EB442206EB442105EB4420FFF7B8
:102D00008FFE641C032CF4D3BDE8F081F0B5ADF563
:102D1000017D07460D461646324629463846FFF7DE
:102D20008DFE012406EB442205EB442101A8FFF7A8
:102D300085FE01AA39463846FFF772FE641C032C53
:102D4000F0D33846FFF75CFF0DF5017DF0BD2DE9AE
:102D5000FC4300256C4640F6015C4FF4D06900232B
:102D600001EB4528002202EB830638F8166024F8B0
:102D7000126034F912700CEAE7373E44B6B224F818
:102D8000126009EB8626B6FBFCF6C6F3090624F8AA
:102D90001260521C042AE6D3BDF800200270160A05
:102DA000BDF8022046EA820646709609BDF8042066
:102DB00046EA021686701609BDF8062046EA821613
:102DC000C67092080271401D5B1C402BCAD36D1C5B
:102DD000032DC4D3BDE8FC83FCB500246E4600235C
:102DE00000EB44250F784A7847EA0227ADF80070D7
:102DF00097088A7847EA8217ADF802701709CA78EF
:102E000047EA0217ADF804700F79920942EA870287
:102E1000ADF80620491D002240F6015C36F812701C
:102E2000C7F3090717FB0CF707F5007702EB830CD4
:102E3000BF0A25F81C70521C042AEDD35B1C402BE2
:102E4000D0D3641C032CCAD3FCBD70B505460E4616
:102E5000002404EB440006EBC01105EB4420FFF70F
:102E600074FE641C032CF4D370BD70B505460024B9
:102E700005EB4420FFF7B8FE641C032CF8D370BDAB
:102E800070B50546002405EB4420FFF7AFFE641C37
:102E9000032CF8D370BD70B50546002405EB442023
:102EA000FFF7AEFE641C032CF8D370BD70B5054669
:102EB0000E46002404EB440006EB442105EBC01051
:102EC000FFF7B8FE641C032CF4D370BD70B500246A
:102ED000002304E0C55CCE5C75402C435B1C934230
:102EE000F8D30021D4EB010261EB0100C00F70BDEB
:102EF000F8B505460E46FFF761FA002408E069467A
:102F00000548FDF7ADFE10B9281900990160241D90
:102F1000B442F4D30020F8BD1C0000207047704775
:102F2000FDF720BB10B592B0302106A8FDF7B1F92E
:102F3000142101A8FDF7ADF900241B48016841F0F8
:102F400080510160006800F08050009017480168CF
:102F500041F480410160006800F48040009002204C
:102F600006900121099110210A910C900D940E9167
:102F7000C0210F9110900420119006A8FDF790FC3D
:102F800008B1FDF7A5F90F20019002940394049471
:102F90000594002101A8FDF781FB002801D0FDF771
:102FA00097F912B010BD0000403802400070004098
:102FB0000248016841F470010160704788ED00E04B
:102FC00010B5806B0021C185C184FDF7CAFE10BD1C
:102FD00001680C3151E8002F22F4907241E800237F
:102FE000002BF5D10168143151E8002F22F00102C5
:102FF00041E80023002BF5D1016B012909D10168BB
:103000000C3151E8002F22F0100241E80023002B80
:10301000F5D1202180F83E1000210163704710B5E2
:103020000168CA6822F04002CA60202180F83D1081
:10303000FEF77CF8002010BD08B590F83E1022295C
:1030400001D0022008BD82684FF480539A4201D11A
:10305000016921B1816A9A421DD052B10BE0816AA7
:1030600002685268C2F308020A80816A891C816280
:1030700009E002697AB10268526802F07F020A70C0
:10308000816A491C8162C18D491E0904090CC185F0
:1030900005D0002008BD026852680A70F0E7016898
:1030A000CA6822F02002CA600168CA6822F48072ED
:1030B000CA6001684A6922F001024A61202180F851
:1030C0003E10016B012903D0FDF7D0FF002008BDA1
:1030D0000021016301680C3151E8002F22F0100239
:1030E00041E80023002BF5D101680A68D20602D519
:1030F0000A6849680091818DFDF732FEE6E700001D
:103100002DE9F041044620680169E26821F440514C
:1031100011430161A1682069E269014360691043BC
:1031200001432068C26849F20C639A430A43C260B3
:1031300020684169A26921F440711143416133491A
:103140002068884202D03249884202D1FDF762FBF2
:1031500001E0FDF74FFBE1690023192764253226C2
:10316000B1F5004F28D061688B0F8A00A0FB0701E2
:10317000FDF726F80146B0FBF5F07A42504301EB2B
:10318000800006EB0010B0FBF5F000F0F002B1FBA0
:10319000F5F002EB0012B1FBF5F07B42584301EB76
:1031A000800006EB0010B0FBF5F0216800F00F0086
:1031B00010448860BDE8F08161684A18A0FB0701EF
:1031C0005B41FCF7FDFF0146B0FBF5F00201B1FBEE
:1031D000F5F06FF01803584301EB800006EBC000D8
:1031E000B0FBF5F000F0F80002EB4002B1FBF5F0A7
:1031F000584301EB800006EBC000B0FBF5F02168FE
:1032000000F0070010448860D4E70000001001407F
:103210000014014090F83D10212901D00220704790
:103220008168B1F5805F01D1016961B1016A4A1C11
:103230000262026809785160C18C491E0904090CB8
:10324000C1840AD013E0016A02680988C1F3080149
:103250005160016A891C0162EEE70168CA6822F0C8
:103260008002CA600068C16841F04001C16000206E
:1032700070472DE9F04104460E4617469846069DD4
:1032800025E0681C23D02DB1FDF766F9A0EB0800FE
:10329000A8421CD920680C3050E8001F21F4D071DE
:1032A00040E80012002AF5D12068143050E8001FD1
:1032B00021F0010140E80012002AF5D120203C3421
:1032C0006070A070002020700320BDE8F0812068AD
:1032D000006836EA000004D00020B842D1D00020B7
:1032E000F3E70120F9E700000148FDF73BBD0000CE
:1032F0002C000020FEE700000FB4054B10B503A919
:10330000044A029800F028F810BC5DF814FB000095
:1033100021380008100000200907090E002804DBEE
:1033200000F1E02080F80014704700F00F0000F179
:10333000E02080F8141D704702E008C8121F08C181
:10334000002AFAD170477047002001E001C1121F26
:10335000002AFBD1704700002DE9FF4F8DB00F46CA
:103360000546002606E025280BD0DDE90F12904720
:103370006D1C761C28780028F5D111B03046BDE8C8
:10338000F08F0024A246A1460122EC4900E004434C
:1033900015F8013F203B02FA03F00842F7D12878E4
:1033A0002A2810D06FF02F022878A0F130010929C7
:1033B00014D80AEB8A0102EB410144F0020400EB4D
:1033C000010A6D1CF0E701CF5FEA000A03D544F45F
:1033D0000054CAF1000A44F002046D1C28782E281B
:1033E00017D115F8010F44F004042A280ED06FF00D
:1033F0002F022878A0F1300109290AD809EB8901A8
:1034000002EB410100EB01096D1CF2E757F8049B48
:103410006D1C28786C280FD006DC4C2817D0682843
:103420000DD06A2814D104E0742810D07A280FD166
:103430000DE044F400140AE044F4801401E044F484
:1034400040146978814202D104F580146D1C6D1C12
:103450002A786E2A1FD00CDC632A31D004DC002AC3
:103460008BD0582A11D1A3E0642A68D0692A0CD1E4
:1034700065E0732A2ED004DC6F2A73D0702A04D141
:103480009BE0752A6FD0782A6ED01046DDE90F12C6
:103490009047761C50E1C4F30250022806D003285E
:1034A00009D0042801CF09D0066045E101CFF1170A
:1034B000C0E9006140E101CF06803DE106703BE1DB
:1034C00017F8040B8DF8000000208DF80100EB4682
:1034D000012003E057F804BB4FF0FF3061074FF0C5
:1034E000000102D40DE008F10101884649450FDAD8
:1034F0008045F8DB1BF808100029F4D108E008F13A
:10350000010188468142FADB1BF808100029F6D138
:10351000DDE90F23AAEB08008146214600F036F9C9
:10352000304400EB080604E0DDE90F121BF8010B44
:103530009047B8F10108F7D221464846F7E00A2142
:10354000C4F302534FF0000B0891022B04D001CFBB
:10355000C117032B09D00AE0FF1D27F00707F7E882
:10356000020108E032E01FE020E000B2C117042BA6
:1035700001D140B2C117031E71F1000307DA4FF009
:10358000000CD0EB0C006CEB01012D2302E02305B5
:1035900004D52B238DF82430012303E0E30701D069
:1035A0002023F7E7984658E00A2110E010210EE0AA
:1035B00010204FF0000B08900CE010214FF0000B92
:1035C00044F004044FF00809089103E008214FF08B
:1035D000000B0891C4F30253022B04D001CF002149
:1035E000032B06D006E0FF1D27F00707F7E80201CE
:1035F00003E080B2042B00D1C0B24FF000082307D3
:103600002BD5702A07D0DDF820C08CF0100C5CEAB6
:103610000B0C05D00EE040238DF82430012308E088
:1036200050EA010306D030238DF824308DF8252090
:1036300002239846DDF820C08CF0080C5CEA0B0CE5
:103640000BD150EA010301D1630706D530238DF871
:1036500024304FF00108A9F10109582A04D038A2FA
:103660000B9208AA0A920BE03AA2F9E75B46089A85
:10367000FCF7A6FD0B9B9B5C0A9A521E0A921370E4
:1036800050EA0102F2D10A98ADEB000000F1200BE4
:10369000600702D524F4803401E04FF00109D945D8
:1036A00002DDA9EB0B0000E0002000EB0B01414420
:1036B0000890AAEB010AE00306D4DDE90F232146B6
:1036C000504600F063F806444FF0000908E009A9ED
:1036D00011F80900DDE90F12904709F10109761C84
:1036E000C145F4DBE0030CD5DDE90F23214650464C
:1036F00000F04CF8064404E0DDE90F12302090475A
:10370000761C0899481E08900029F5DC08E00A9804
:103710000A990078491C0A91DDE90F129047761C3E
:10372000BBF10001ABF1010BF1DC21465046DDE9B4
:103730000F2300F019F806446D1C1BE60928010050
:103740003031323334353637383961626364656617
:1037500000000000303132333435363738394142D9
:1037600043444546000000002DE9F0410446002591
:103770001E461746880404D405E039462020B04789
:103780006D1C641EF9D52846BDE8F0812DE9F04195
:10379000044600251E469046C80301D5302700E0A8
:1037A0002027880404D505E041463846B0476D1C03
:1037B000641EF9D52846BDE8F0812DE9F0410546A3
:1037C0000E4600244FF05538022706EB840000F027
:1037D0006FF900F0553108EA5000421800208100CE
:1037E00022FA01F101F0030307EB800122FA01F153
:1037F00001F00301591A00EBC40325F81310401C13
:103800000828ECD3641C202CDFD3BDE8F081000035
:1038100001A0FFF771FDFEE7657869740000000004
:1038200013B54FF6FF73012269460248FDF71FFCEE
:1038300000981CBD2C0000204843FFF7B7B80000DB
:1038400010B5002821D0114B0022001F196803E099
:10385000814203D80A4649680029F9D152B1136858
:10386000841A9C4204D1006818441060104602E09B
:10387000506000E0186039B102680B1A934203D11E
:103880000B681A4402604968416010BD14000020B2
:103890002DE9F041ADF5945D0DF590660DF55E6591
:1038A00031462846FEF77DFE10B130A0FFF724FD1B
:1038B00034A0FFF721FD00244FF49467295D35A063
:1038C000FFF71AFD641CBC42F8DB34A0FFF714FDBF
:1038D00033A0FFF711FD00244FF41667315D2DA0D2
:1038E000FFF70AFD641CBC42F8DB2CA0FFF704FDC7
:1038F0002FA0FFF701FD2A4608AD10AF2946384634
:10390000FEF720FE00244FF48868395D21A0FFF700
:10391000F3FC641C4445F8DB20A0FFF7EDFC26A077
:10392000FFF7EAFC00241BA0295DFFF7E5FC641CFF
:10393000202CF8DB19A0FFF7DFFC21A0FFF7DCFC4F
:103940006D46324639462846FEF7B0FD002411A0E8
:10395000295DFFF7D1FC641C202CF8DB0FA0FFF7DA
:10396000CBFC0DF5945DBDE8F08100004572726FEF
:10397000722067656E65726174696E67206B657928
:10398000730A00005075626C6963206B65793A2098
:103990000000000025303278000000000A0000001E
:1039A00050726976617465206B65793A2000000079
:1039B00063743A200000000073733A200000000096
:1039C0007373303A200000002DE9F047B2B0814611
:1039D000DDF8E8A00D4617469846002009EBC00127
:1039E00000230B604B60401C1928F7D316E000241D
:1039F0000BE007EBC40000F066F809EBC406D6E95B
:103A000000235040594003C6641CB4EBD50FF0D3DB
:103A10004846FDF78DFBA8EB05082F44A845E6D2E4
:103A200000206E46002101E03154401CA842FBD327
:103A3000002102E0785C7054491C4145FAD306F835
:103A400001A0701910F8011D41F0800101700024DF
:103A50000BE006EBC40000F036F809EBC402D2E933
:103A600000375840794003C2641CB4EBD50FF0D343
:103A700032B0BDE8F0872DE9F04105460E4690468C
:103A80001F4611E04046FDF753FB002407E008EB1A
:103A9000C4000CC805EBC40000F057F9641CB4EB7B
:103AA000D70FF4D33D44761E002EEBD1BDE8F08154
:103AB0000178427841EA0221827841EA0241C078E5
:103AC00041EA006070472DE9F04107460024254691
:103AD0000026A046B85DF2004146FCF7A2FB044375
:103AE0000D43761C082EF5D320462946BDE8F0810B
:103AF000FCF740FDFFF716FAFEF74AFCFEF75EFC06
:103B0000FEF76EFC02A0FFF7F7FBFFF7C1FEFEE732
:103B100031323334353431333534333635360000D1
:103B2000F0B50B30154D20F007010024144A0FE0CA
:103B300003688B420BD38B4205D95E1A4318476842
:103B4000C3E9006700E04368136002C004E0021D9F
:103B500010680028ECD12046002802D1286808B15E
:103B60000020F0BD064A07481060074A121A22F0EA
:103B70000702C0E9002401202860D7E718000020D0
:103B800014000020740000207020002070B504464E
:103B900015462046FFF7DBF8294604F57070BDE8AE
:103BA0007040FEF77BBF70B5044615462046FFF710
:103BB0007DF900216218685C82F88004491C202984
:103BC000F8D370BDFFF772B92DE9F04184460020AB
:103BD00004464FF4506819E01619155D777845EAE8
:103BE0000725C5F30B05B6783F0947EA0616E41C1E
:103BF000454503D80746401C2CF81750884205D28B
:103C0000464503D80546401C2CF81560884202D270
:103C1000E51C9D42E0D9BDE8F08110B5D6B0044660
:103C2000062013460A460090882124A8FFF7CCFE00
:103C3000882324AA012102A8FFF71DFF002102AA60
:103C4000505C6054491C2029FAD356B010BD10B501
:103C5000C6B00446062013460A460090482114A820
:103C6000FFF7B2FE482314AA012102A8FFF703FFC1
:103C7000002102AA505C6054491C4029FAD346B086
:103C800010BDF8B504460D461646C820FFF748FF9C
:103C9000206038B11F22009233462A46A821FFF740
:103CA00093FEF8BD6F20FFF7B3FD0068FFF7C8BDB6
:103CB0001268A823FFF7DFBE70B505461046A4B012
:103CC0000E461A468821B6FBF1F4014601A800F021
:103CD00021F801AA2146284600F033F804EB04112C
:103CE00005EBC105604200EB001006EBC00464B1B7
:103CF00001AA012102A800F024F8002002A902E094
:103D00000A5C2A54401CA042FAD301A800F016F81D
:103D100024B070BDF8B504460D461646C820FFF71E
:103D2000FFFE206038B11F22009233462A468821C8
:103D3000FFF74AFEF8BD6F20FFF76AFD0068FFF746
:103D40007FBD12688823FFF796BE2DE9F041074634
:103D500015461E460024E20028463146FCF770FA5C
:103D60003855641C082CF6D3BDE8F08170B50D46BB
:103D700014462146FFF730F804F570712846BDE877
:103D80007040FEF7C5BE70B50D4614462146FFF7DC
:103D90005CF80020211891F880142954401C202838
:103DA000F8D370BDFFF751B8ECFB0AFD99FE13FA8A
:103DB000D5058E051F01CA0055FF6E022906B60003
:103DC000C2034EFB3EFABC053D02D3FA08017F0157
:103DD000C3FCB205BEF97EFF57FDF903DC026002A9
:103DE000FAF99B0133FFDDF9C7048C02D8FDF70314
:103DF000F3FAD305E6FEF8F90402F8FFC0FE66FD0B
:103E0000AEF976FB7E00BD05ABFCA6FFF1FE3E03DE
:103E10006B0073FA09FF49FC72FEC1031CFA2BFD0B
:103E2000C001D7FBA50205FBB1FBAE012B024B0382
:103E30001DFB67030E066900A6014B02B10015FFCA
:103E4000DDFE34FE260675060AFF0A0387046DFFB1
:103E5000F7FCCB05A6FD5F04CAF9840298FC5D015E
:103E6000A201490164FFB5FF310349045B0262020C
:103E70002A05FBFA47FA800141FB78FFC204C9FA20
:103E800096FCDC005DFB85F95FFB06FA02FB1A037A
:103E90001AFAAAFC9AFCDE0194FFCCFEE403DF03CD
:103EA000BE034CFAF2055C060100000000000000B1
:103EB00082800000000000008A8000000000008076
:103EC00000800080000000808B8000000000000067
:103ED0000100008000000000818000800000008060
:103EE00009800000000000808A000000000000003F
:103EF0008800000000000000098000800000000031
:103F00000A000080000000008B800080000000009C
:103F10008B0000000000008089800000000000800D
:103F2000038000000000008002800000000000808C
:103F300080000000000000800A80000000000000F7
:103F40000A00008000000080818000800000008066
:103F50008080000000000080010000800000000060
:103F600008800080000000800000000000000000C9
:103F7000010203040607080900000000010203040F
:103F8000A03F0008000000201C000000383300089B
:103F9000BC3F00081C0000205460000048330008AB
:103FA0000100000010000000000000000024F400E8
:0C3FB00000000000000000000000000005
:040000050800019D51
:00000001FF
